:100000000C94A3000C94CB000C94CB000C94CB006C
:100010000C94CB000C94CB000C94CB000C94CB0034
:100020000C94CB000C94CB000C94CB000C94CB0024
:100030000C94CB000C94CB000C94CB000C94CB0014
:100040000C9424030C94CB000C9494030C946E0336
:100050000C94CB000C94CB000C94CB000C94CB00F4
:100060000C94CB000C94CB0007634236B79BD8A707
:100070001A39685618AEBAAB558C1D3CB7CC5763CD
:10008000BD6DEDFD753EF6177231BF000000803F7B
:1000900008000000BE922449123EABAAAA2ABECD97
:1000A000CCCC4C3E00000080BEABAAAAAA3E000009
:1000B0000000BF000000803F000000000008417801
:1000C000D3BB4387D1133D190E3CC3BD4282AD2B38
:1000D0003E68EC8276BED98FE1A93E4C80EFFFBE30
:1000E00001C4FF7F3F00000000000000000024006A
:1000F00027002A0000000000250028002B0004042F
:1001000004040404040402020202020203030303BF
:10011000030301020408102040800102040810209B
:100120000102040810200000000800020100000382
:100130000407000000000000000000000000230091
:1001400026002900790511241FBECFEFD8E0DEBFBD
:10015000CDBF11E0A0E0B1E0ECEBF2E102C0059010
:100160000D92A633B107D9F721E0A6E3B1E001C0B3
:100170001D92AC3DB207E1F710E0C3EAD0E004C045
:100180002197FE010E945609C23AD107C9F70E9481
:10019000C6030C945C090C94000090E0FC01EA5D3D
:1001A000FE4F2491FC01EE5EFE4F3491FC01E250C3
:1001B000FF4FE491EE23C9F0222339F0233001F1FF
:1001C000A8F4213019F1223029F1F0E0EE0FFF1FE1
:1001D000EC50FF4FA591B4918FB7F894EC91611159
:1001E00026C030953E233C938FBF08952730A9F059
:1001F0002830C9F0243049F7809180008F7D03C0FA
:10020000809180008F7780938000DFCF84B58F77D7
:1002100084BDDBCF84B58F7DFBCF8091B0008F771D
:100220008093B000D2CF8091B0008F7DF9CF3E2B6C
:10023000DACF3FB7F89480913B0190913C01A091B7
:100240003D01B0913E0126B5A89B05C02F3F19F096
:100250000196A11DB11D3FBFBA2FA92F982F882746
:10026000BC01CD01620F711D811D911D42E0660F21
:10027000771F881F991F4A95D1F708958F929F92F3
:10028000AF92BF92CF92DF92EF92FF920F931F93A4
:10029000CF93DF93C82F0E9419016B017C0100915D
:1002A000010110E0C111102F83E290E00197F1F7F6
:1002B000C3E1D0E00E9419014B015C018C189D083C
:1002C000AE08BF08E0910001F0E0EE0FFF1FE65C12
:1002D000FE4FA591B4912C9120232117A1F0482D18
:1002E000392D2A2D9B2D642F732F822FDF91CF91D3
:1002F0001F910F91FF90EF90DF90CF90BF90AF9044
:100300009F908F90089581E2881681EA980687E091
:10031000A806B10420F4CE010197F1F7CBCF4FEF3F
:100320003FEF2FEF9FEFDFCF8F929F92AF92BF9261
:10033000CF92DF92EF92FF924B015C010E94190174
:100340006B017C010E9419016C197D098E099F09BE
:10035000683E734081059105A8F321E0821A910857
:10036000A108B10888EEC80E83E0D81EE11CF11C7C
:1003700081149104A104B10429F7FF90EF90DF905C
:10038000CF90BF90AF909F908F900895AF92BF9203
:10039000CF92DF92EF92FF920F931F93CF93DF9351
:1003A0006C017B018B01040F151FEB015E01AE1880
:1003B000BF08C017D10759F06991D601ED91FC91A2
:1003C0000190F081E02DC6010995892B79F7C501CF
:1003D000DF91CF911F910F91FF90EF90DF90CF9021
:1003E000BF90AF900895FC01538D448D252F30E0D0
:1003F000842F90E0821B930B541710F0CF96089532
:1004000001970895FC01918D828D981761F0A28D5E
:10041000AE0FBF2FB11D5D968C91928D9F5F9F7324
:10042000928F90E008958FEF9FEF0895FC01918DDA
:10043000828D981731F0828DE80FF11D858D90E047
:1004400008958FEF9FEF0895FC01918D228D892FE4
:1004500090E0805C9F4F821B91098F7399270895CC
:100460008FE391E00E94240221E0892B09F420E02F
:10047000822F089580E090E0892B29F00E943002BD
:1004800081110C9400000895FC01A48DA80FB92FD0
:10049000B11DA35ABF4F2C91848D90E001968F73AC
:1004A0009927848FA689B7892C93A089B1898C91CB
:1004B000837080648C93938D848D981306C002881A
:1004C000F389E02D80818F7D80830895EF92FF92E4
:1004D0000F931F93CF93DF93EC0181E0888F9B8D67
:1004E0008C8D98131AC0E889F989808185FF15C021
:1004F0009FB7F894EE89FF896083E889F989808144
:100500008370806480839FBF81E090E0DF91CF9112
:100510001F910F91FF90EF900895F62E0B8D10E034
:100520000F5F1F4F0F731127E02E8C8D8E110CC0A3
:100530000FB607FCFACFE889F989808185FFF5CFEE
:10054000CE010E944402F1CFEB8DEC0FFD2FF11D87
:10055000E35AFF4FF0829FB7F8940B8FEA89FB892B
:1005600080818062CFCFCF93DF93EC01888D882389
:10057000B9F0AA89BB89E889F9898C9185FD03C006
:10058000808186FD0DC00FB607FCF7CF8C9185FFEB
:10059000F2CF808185FFEDCFCE010E944402E9CFEA
:1005A000DF91CF910895FC0101900020E9F7319788
:1005B000AF01481B590BBC018FE391E00C94C601BD
:1005C0008F929F92AF92BF920F931F93CF93DF931F
:1005D000CDB7DEB7A1970FB6F894DEBF0FBECDBF83
:1005E00019A2423008F44AE08E010F5D1F4F842E9D
:1005F000912CB12CA12CA50194010E943409E62F65
:10060000B901CA01EA30F4F4E05DD801EE938D013E
:10061000232B242B252B79F790E080E0109719F0FD
:10062000CD010E94D302A1960FB6F894DEBF0FBE93
:10063000CDBFDF91CF911F910F91BF90AF909F9051
:100640008F900895E95CE1CF1F920F920FB60F9241
:1006500011242F933F938F939F93AF93BF938091D8
:10066000370190913801A0913901B0913A01309150
:10067000360123E0230F2D3758F50196A11DB11D3A
:10068000209336018093370190933801A09339016C
:10069000B0933A0180913B0190913C01A0913D01C2
:1006A000B0913E010196A11DB11D80933B01909335
:1006B0003C01A0933D01B0933E01BF91AF919F914A
:1006C0008F913F912F910F900FBE0F901F90189513
:1006D00026E8230F0296A11DB11DD2CF1F920F92C3
:1006E0000FB60F9211242F933F934F935F936F9305
:1006F0007F938F939F93AF93BF93EF93FF938FE37A
:1007000091E00E944402FF91EF91BF91AF919F91C0
:100710008F917F916F915F914F913F912F910F90AA
:100720000FBE0F901F9018951F920F920FB60F9249
:1007300011242F938F939F93EF93FF93E0914F0199
:10074000F09150018081E0915501F091560182FDB8
:100750001BC09081809158018F5F8F732091590148
:10076000821741F0E0915801F0E0E15CFE4F958F77
:1007700080935801FF91EF919F918F912F910F904E
:100780000FBE0F901F9018958081F4CFCF93DF9309
:10079000CDB7DEB7AC970FB6F894DEBF0FBECDBFB6
:1007A000789484B5826084BD84B5816084BD85B54C
:1007B000826085BD85B5816085BD80916E00816058
:1007C00080936E00109281008091810082608093FE
:1007D0008100809181008160809381008091800000
:1007E0008160809380008091B10084608093B1002B
:1007F0008091B00081608093B00080917A00846025
:1008000080937A0080917A00826080937A00809150
:100810007A00816080937A0080917A00806880936A
:100820007A001092C100E0914F01F091500182E0F6
:100830008083E0914B01F0914C011082E0914D01D9
:10084000F0914E0180E1808310925701E0915301B5
:10085000F091540186E08083E0915101F0915201C2
:10086000808180618083E0915101F091520180810B
:1008700088608083E0915101F0915201808180680D
:100880008083E0915101F091520180818F7D8083BE
:1008900059E1E52E51E0F52E65E0C62E61E0D62E39
:1008A000CE0101965C01FE01B996FAA7E9A7F7010E
:1008B000849180930101F601849180930001F501F8
:1008C00088E211928A95E9F7F7012491F601849163
:1008D000882399F090E0880F991FFC01E651FF4FA3
:1008E000A591B491FC01EC50FF4F859194918FB785
:1008F000F8949C91292B2C938FBF60E087E00E9495
:10090000CD0064E170E080E090E00E94940161E03D
:1009100087E00E94CD008FE590E00197F1F7F701A5
:100920002491F60184918823C1F090E0880F991FEB
:10093000FC01E651FF4FA591B491FC01EC50FF4F33
:10094000859194914FB7F8943C91209532233C9334
:10095000FC013081232320834FBF80E00E943E01B1
:100960006832710581059105F4F081E00E943E0135
:100970006832710581059105B4F0850180E00E941F
:100980003E0181E00E943E0121E06932710581054E
:1009900091050CF420E0F80121938F0189A59AA517
:1009A0008E179F0759F7450107E010E0312CF4013D
:1009B00021904F01B80190E080E00E9442069B0127
:1009C000AC0160E070E080E090E40E943D072B0104
:1009D0003C01622D70E090E080E00E944406A3019B
:1009E00092010E94D0062B013C01632D70E090E043
:1009F00080E00E9444069B01AC01C301B2010E9449
:100A0000A7050E941306362E0150110980F6CE016B
:100A100041969CA78BA707E010E0912CEBA5FCA5C5
:100A20008190FCA7EBA7B80190E080E00E9442060D
:100A30009B01AC0160E070E080E090E40E943D0723
:100A40002B013C01682D70E090E080E00E9444069C
:100A5000A30192010E94D0062B013C01692D70E098
:100A600090E080E00E9444069B01AC01C301B2010A
:100A70000E94A7050E941306962E0150110970F6D8
:100A800084E191E00E94D302692D70E090E080E063
:100A90004AE00E94E00283E291E00E94D30285E2F4
:100AA00091E00E94D30288E291E00E94D302632D7C
:100AB00070E090E080E04AE00E94E00284E391E090
:100AC0000E94D30285E291E00E94D30268EE73E0B7
:100AD00080E090E00E94940180E090E0892B09F48E
:100AE000E6CE0E943002882309F4E1CE0E94000085
:100AF000DECEEFE3F1E01382128288EE93E0A0E015
:100B0000B0E084839583A683B78386E091E09183E8
:100B1000808385EC90E09587848784EC90E09787CC
:100B2000868780EC90E0918B808B81EC90E0938BBA
:100B3000828B82EC90E0958B848B86EC90E0978B97
:100B4000868B118E128E138E148E08955058BB27EB
:100B5000AA270E94BE050C9496060E94880638F0CB
:100B60000E948F0620F039F49F3F19F426F40C946C
:100B700085060EF4E095E7FB0C947F06E92F0E94B2
:100B8000A70658F3BA17620773078407950720F082
:100B900079F4A6F50C94C9060EF4E0950B2EBA2F45
:100BA000A02D0B01B90190010C01CA01A001112473
:100BB000FF27591B99F0593F50F4503E68F11A161F
:100BC000F040A22F232F342F4427585FF3CF4695B0
:100BD00037952795A795F0405395C9F77EF41F16D2
:100BE000BA0B620B730B840BBAF09150A1F0FF0F9C
:100BF000BB1F661F771F881FC2F70EC0BA0F621F88
:100C0000731F841F48F4879577956795B795F79577
:100C10009E3F08F0B0CF9395880F08F09927EE0F0C
:100C20009795879508950E94AF0688F09F5798F092
:100C3000B92F9927B751B0F0E1F0660F771F881FE1
:100C4000991F1AF0BA95C9F714C0B13091F00E94FB
:100C5000C906B1E008950C94C906672F782F88273C
:100C6000B85F39F0B93FCCF3869577956795B39522
:100C7000D9F73EF490958095709561957F4F8F4F91
:100C80009F4F0895E89409C097FB3EF49095809596
:100C9000709561957F4F8F4F9F4F9923A9F0F92F42
:100CA00096E9BB279395F695879577956795B795C0
:100CB000F111F8CFFAF4BB0F11F460FF1BC06F5FA6
:100CC0007F4F8F4F9F4F16C0882311F096E911C0B8
:100CD000772321F09EE8872F762F05C0662371F0D9
:100CE00096E8862F70E060E02AF09A95660F771FED
:100CF000881FDAF7880F9695879597F9089597F9E1
:100D00009F6780E870E060E008959FEF80EC0895B1
:100D100000240A94161617061806090608950024DA
:100D20000A9412161306140605060895092E039454
:100D3000000C11F4882352F0BB0F40F4BF2B11F4C8
:100D400060FF04C06F5F7F4F8F4F9F4F089557FD27
:100D50009058440F551F59F05F3F71F04795880F29
:100D600097FB991F61F09F3F79F0879508951216C0
:100D700013061406551FF2CF4695F1DF08C016166C
:100D800017061806991FF1CF86957105610508941D
:100D90000895E894BB2766277727CB0197F9089534
:100DA0000E94E3060C9496060E94880638F00E9482
:100DB0008F0620F0952311F00C947F060C94850685
:100DC00011240C94CA060E94A70670F3959FC1F3E4
:100DD000950F50E0551F629FF001729FBB27F00DE9
:100DE000B11D639FAA27F00DB11DAA1F649F66273E
:100DF000B00DA11D661F829F2227B00DA11D621F8D
:100E0000739FB00DA11D621F839FA00D611D221F46
:100E1000749F3327A00D611D231F849F600D211D2A
:100E2000822F762F6A2F11249F5750409AF0F1F0AD
:100E300088234AF0EE0FFF1FBB1F661F771F881F16
:100E400091505040A9F79E3F510580F00C947F06C9
:100E50000C94CA065F3FE4F3983ED4F386957795E9
:100E60006795B795F795E7959F5FC1F7FE2B880FBC
:100E7000911D9695879597F90895FA01EE0FFF1F3A
:100E8000309621053105A1F16115710561F48038B5
:100E9000BFE39B0749F168949038810561F0803881
:100EA000BFEF9B0741F099234AF5FF3FE10531056C
:100EB000210519F1E8940894E795D901AA2329F4AA
:100EC000AB2FBE2FF85FD0F310C0FF5F70F4A69574
:100ED000E0F7F73950F019F0FF3A38F49F779F9315
:100EE0000DD00F9007FC9058089546F00C9485069D
:100EF00060E070E080E89FE308954FE79F775F939D
:100F00004F933F932F930E9438082F913F914F9119
:100F10005F910E94D0060C94950729F416F00C946A
:100F20007F060C94C9060C9485060E94AF06A8F3B0
:100F30009638A0F707F80F92E8942BE33AEA48EBCB
:100F40005FE70E94E6060F920F920F924DB75EB7D1
:100F50000F920E948008E8E6F0E00E94C7074F91D8
:100F60005F91EF91FF91E595EE1FFF1F49F0FE574E
:100F7000E0684427EE0F441FFA95E1F74195550BC1
:100F80000E94FA070F9007FE0C94EE070895DF9376
:100F9000CF931F930F93FF92EF92DF927B018C010F
:100FA000689406C0DA2EEF010E94E306FE01E89481
:100FB000A5912591359145915591A6F3EF010E9498
:100FC000BE05FE019701A801DA9469F7DF90EF9062
:100FD000FF900F911F91CF91DF9108959B01AC017C
:100FE00060E070E080E89FE30C94B4080C947F0606
:100FF0000C9426090E94AF06D8F39923C9F3940FE5
:10100000511DA3F39150504094F059F0882332F0D1
:10101000660F771F881F91505040C1F79E3F5105C2
:101020002CF7880F911D9695879597F908955F3F46
:10103000ACF0983E9CF0BB27869577956795B79561
:1010400008F4B1609395C1F7BB0F58F711F460FF36
:10105000E8CF6F5F7F4F8F4F9F4FE3CF0C94CA064F
:1010600016F00C9426090C94850668940C947F065F
:101070000E94AF06A8F39923C1F3AEF3DF93CF9399
:101080001F930F93FF92C92FDD2788232AF0219702
:10109000660F771F881FDAF720E030E040E85FEB4B
:1010A0009FE3883920F0803E38F021968F770E94A8
:1010B000A705E0E9F0E004C00E94A705EDEBF0E031
:1010C0000E94C7078B01BE01EC01FB2E6F5771090F
:1010D0007595771F880B990B0E94440628E132E72B
:1010E00041E35FE30E94E306AF2D9801AE01FF905C
:1010F0000F911F91CF91DF910E94BE050C9496062F
:10110000FA01DC01AA0FBB1F9B01AC01BF5728F4F9
:10111000222733274427507820C0B75190F4AB2FB3
:101120000024469537952795011CA395D2F30020FE
:1011300071F0220F331F441FB395DAF30ED00C94D5
:10114000A60561307105A0E88A07B94630F49B0115
:10115000AC016627772788279078309621F0208386
:1011600031834283538308950E94C8080C949606E5
:101170000E948F0658F00E94880640F029F45F3FD5
:1011800029F00C947F0651110C94CA060C94850624
:101190000E94A70668F39923B1F3552391F3951B99
:1011A000550BBB27AA2762177307840738F09F5F88
:1011B0005F4F220F331F441FAA1FA9F335D00E2EF5
:1011C0003AF0E0E832D091505040E695001CCAF762
:1011D0002BD0FE2F29D0660F771F881FBB1F261725
:1011E00037074807AB07B0E809F0BB0B802DBF01FC
:1011F000FF2793585F4F3AF09E3F510578F00C94CB
:101200007F060C94CA065F3FE4F3983ED4F38695BC
:1012100077956795B795F7959F5FC9F7880F911DEB
:101220009695879597F90895E1E0660F771F881FD7
:10123000BB1F621773078407BA0720F0621B730B8A
:10124000840BBA0BEE1F88F7E09508959F3F31F0AD
:10125000915020F4879577956795B795880F911DE4
:101260009695879597F90895A1E21A2EAA1BBB1BA4
:10127000FD010DC0AA1FBB1FEE1FFF1FA217B30762
:10128000E407F50720F0A21BB30BE40BF50B661F78
:10129000771F881F991F1A9469F76095709580953C
:1012A00090959B01AC01BD01CF010895EE0FFF1F8A
:0C12B0000590F491E02D0994F894FFCF14
:1012BC00FFFF000000006602C601F301B302240226
:1012CC000202160274656D70657261747572652028
:1012DC003A200043000D0A0068756D6964697479E1
:0612EC00203A200025005D
:00000001FF
