:100000000C945D000C94B0030C9489030C9485004F
:100010000C9485000C9485000C9485000C9485004C
:100020000C9485000C9485000C9485000C9485003C
:100030000C9485000C9485000C9485000C9485002C
:100040000C943F030C9485000C94FD030C94D7038F
:100050000C9485000C9485000C9485000C9485000C
:100060000C9485000C9485000000000024002700FB
:100070002A0000000000250028002B0004040404CE
:100080000404040402020202020203030303030342
:10009000010204081020408001020408102001021F
:1000A00004081020000000080002010000030407FB
:1000B0000000000000000000460511241FBECFEF25
:1000C000D8E0DEBFCDBF11E0A0E0B1E0EAE8FBE0A0
:1000D00002C005900D92AC31B107D9F721E0ACE137
:1000E000B1E001C01D92A63CB207E1F710E0CDE5FA
:1000F000D0E004C02197FE010E94BD05CC35D10798
:10010000C9F70E942F040C94C3050C94000090E0E2
:10011000FC01EC55FF4F2491FC01E057FF4F349157
:10012000FC01E458FF4FE491EE23C9F0222339F09B
:10013000233001F1A8F4213019F1223029F1F0E047
:10014000EE0FFF1FEE58FF4FA591B4918FB7F894B3
:10015000EC91611126C030953E233C938FBF0895EA
:100160002730A9F02830C9F0243049F78091800069
:100170008F7D03C0809180008F7780938000DFCFD8
:1001800084B58F7784BDDBCF84B58F7DFBCF809125
:10019000B0008F778093B000D2CF8091B0008F7D78
:1001A000F9CF3E2BDACF3FB7F8948091250190919B
:1001B0002601A0912701B091280126B5A89B05C072
:1001C0002F3F19F00196A11DB11D3FBFBA2FA92FD6
:1001D000982F8827BC01CD01620F711D811D911DD3
:1001E00042E0660F771F881F991F4A95D1F708953F
:1001F0008F929F92AF92BF92CF92DF92EF92FF9237
:100200004B015C010E94D3006B017C010E94D30072
:100210006C197D098E099F09683E7340810591051F
:10022000A8F321E0821A9108A108B10888EEC80E4F
:1002300083E0D81EE11CF11C81149104A104B104D7
:1002400029F7FF90EF90DF90CF90BF90AF909F90F5
:100250008F9008958230E8F4E82FF0E0EE0FFF1F52
:10026000E050FF4F71836083813041F080916900DD
:100270008C7F482B40936900E89A0895809169002B
:10028000837F440F551F440F551F482B409369002F
:10029000E99A08950895AF92BF92CF92DF92EF92BC
:1002A000FF920F931F93CF93DF936C017B018B0120
:1002B000040F151FEB015E01AE18BF08C017D10770
:1002C00059F06991D601ED91FC910190F081E02DFA
:1002D000C6010995892B79F7C501DF91CF911F914F
:1002E0000F91FF90EF90DF90CF90BF90AF90089567
:1002F000FC01538D448D252F30E0842F90E0821B2C
:10030000930B541710F0CF96089501970895FC01B0
:10031000918D828D981761F0A28DAE0FBF2FB11D08
:100320005D968C91928D9F5F9F73928F90E0089560
:100330008FEF9FEF0895FC01918D828D981731F01A
:10034000828DE80FF11D858D90E008958FEF9FEF6E
:100350000895FC01918D228D892F90E0805C9F4F44
:10036000821B91098F739927089589E291E00E9479
:10037000A90121E0892B09F420E0822F089580E073
:1003800090E0892B29F00E94B50181110C940000A6
:100390000895FC01A48DA80FB92FB11DA35ABF4F1A
:1003A0002C91848D90E001968F739927848FA68974
:1003B000B7892C93A089B1898C91837080648C93C8
:1003C000938D848D981306C00288F389E02D808177
:1003D0008F7D80830895EF92FF920F931F93CF93A9
:1003E000DF93EC0181E0888F9B8D8C8D98131AC070
:1003F000E889F989808185FF15C09FB7F894EE8957
:10040000FF896083E889F9898081837080648083B3
:100410009FBF81E090E0DF91CF911F910F91FF90FE
:10042000EF900895F62E0B8D10E00F5F1F4F0F73A6
:100430001127E02E8C8D8E110CC00FB607FCFACF61
:10044000E889F989808185FFF5CFCE010E94C90135
:10045000F1CFEB8DEC0FFD2FF11DE35AFF4FF08232
:100460009FB7F8940B8FEA89FB8980818062CFCF98
:10047000CF93DF93EC01888D8823B9F0AA89BB89DB
:10048000E889F9898C9185FD03C0808186FD0DC0C6
:100490000FB607FCF7CF8C9185FFF2CF808185FFE7
:1004A000EDCFCE010E94C901E9CFDF91CF91089530
:1004B0002FB7F8948091210190912201A0912301FE
:1004C000B09124012FBF40911C0150911D016091FA
:1004D0001E0170911F01841B950BA60BB70B813D6C
:1004E0009740A105B10550F060E088E00E948700C8
:1004F00060E078EE86E798E40C94F80008958F9217
:100500009F92AF92BF920F931F93CF93DF93CDB77C
:10051000DEB7A1970FB6F894DEBF0FBECDBF19A20C
:10052000423008F44AE08E010F5D1F4F842E912C5B
:10053000B12CA12CA50194010E948705E62FB901D9
:10054000CA01EA3044F5E05DD801EE938D01232B1A
:10055000242B252B79F790E080E0109769F0FD01BE
:1005600001900020E9F73197AF014A1B5B0BBD01F9
:1005700089E291E00E944B01A1960FB6F894DEBF8C
:100580000FBECDBFDF91CF911F910F91BF90AF9064
:100590009F908F900895E95CD7CF42E050E068E1EA
:1005A00071E089E291E00C944B01CF92DF92EF92DF
:1005B000FF922FB7F8948091210190912201A09190
:1005C0002301B09124012FBF40911C0150911D01C6
:1005D00060911E0170911F01841B950BA60BB70B38
:1005E00087399105A105B10590F1C0900401D09023
:1005F00005018FEFC81AD80AD0920501C0920401F4
:100600000D2C000CEE08FF084AE0C701B601F7FE0A
:100610000DC06DE289E291E00E94EB016627772729
:10062000CB016C197D098E099F094AE00E947F0267
:100630000E94CD0260911C0170911D0180911E01EC
:1006400090911F014AE00E947F020E94CD022FB7C5
:10065000F8948091210190912201A0912301B09101
:1006600024012FBF80931C0190931D01A0931E01B4
:10067000B0931F01FF90EF90DF90CF9008951F92ED
:100680000F920FB60F9211242F933F938F939F9346
:10069000AF93BF938091210190912201A0912301FA
:1006A000B09124013091200123E0230F2D3758F51C
:1006B0000196A11DB11D20932001809321019093EB
:1006C0002201A0932301B0932401809125019091F0
:1006D0002601A0912701B09128010196A11DB11D0D
:1006E0008093250190932601A0932701B0932801C0
:1006F000BF91AF919F918F913F912F910F900FBE1E
:100700000F901F90189526E8230F0296A11DB11D8A
:10071000D2CF1F920F920FB60F9211242F933F93B7
:100720004F935F936F937F938F939F93AF93BF93F9
:10073000EF93FF93E0910201F09103010995FF917E
:10074000EF91BF91AF919F918F917F916F915F9149
:100750004F913F912F910F900FBE0F901F901895C2
:100760001F920F920FB60F9211242F933F934F9326
:100770005F936F937F938F939F93AF93BF93EF9309
:10078000FF93E0910001F09101010995FF91EF9134
:10079000BF91AF919F918F917F916F915F914F9199
:1007A0003F912F910F900FBE0F901F9018951F92A1
:1007B0000F920FB60F9211242F933F934F935F9395
:1007C0006F937F938F939F93AF93BF93EF93FF9319
:1007D00089E291E00E94C901FF91EF91BF91AF9131
:1007E0009F918F917F916F915F914F913F912F9149
:1007F0000F900FBE0F901F9018951F920F920FB67B
:100800000F9211242F938F939F93EF93FF93E09177
:100810003901F0913A018081E0913F01F09140016E
:1008200082FD1BC09081809142018F5F8F73209168
:100830004301821741F0E0914201F0E0E75DFE4F95
:10084000958F80934201FF91EF919F918F912F910E
:100850000F900FBE0F901F9018958081F4CF789461
:1008600084B5826084BD84B5816084BD85B58260B5
:1008700085BD85B5816085BD80916E008160809366
:100880006E001092810080918100826080938100CF
:1008900080918100816080938100809180008160DF
:1008A000809380008091B10084608093B10080913A
:1008B000B00081608093B00080917A008460809362
:1008C0007A0080917A00826080937A0080917A0029
:1008D000816080937A0080917A00806880937A00AA
:1008E0001092C100E8E9F0E02491E4E8F0E084919E
:1008F000882399F090E0880F991FFC01E859FF4F79
:10090000A591B491FC01EE58FF4F859194918FB75A
:10091000F894EC91E22BEC938FBFE2E9F0E02491A4
:10092000EEE7F0E084918823C1F090E0880F991FF2
:10093000FC01E859FF4FC591D491FC01EE58FF4FDF
:10094000A591B4919FB7F8943881822F8095832325
:100950008883EC91E22BEC939FBFE0913901F091F9
:100960003A0182E08083E0913501F09136011082F6
:10097000E0913701F091380180E1808310924101CC
:10098000E0913D01F0913E0186E08083E0913B01E2
:10099000F0913C01808180618083E0913B01F09186
:1009A0003C01808188608083E0913B01F0913C01B3
:1009B000808180688083E0913B01F0913C018081DF
:1009C0008F7D808342E050E065ED72E080E00E9420
:1009D0002A0143E050E068E572E081E00E942A01CC
:1009E000C3E0D0E000E010E08091040190910501A7
:1009F000BE010E9473050097F1F461E088E00E9457
:100A0000870068EE73E080E090E00E94F80060E00C
:100A100088E00E94870068EE73E080E090E00E942A
:100A2000F8000115110501F30E94B5018823E1F2D8
:100A30000E940000D9CF8130910599F461E088E0EF
:100A40000E94870064E670E080E090E00E94F80079
:100A500060E088E00E94870064E670E080E090E05B
:100A6000DECF0297F1F661E088E00E94870068EE31
:100A700073E080E090E00E94F80060E088E00E946F
:100A8000870061E070E080E090E0C9CFE9E2F1E04A
:100A90001382128288EE93E0A0E0B0E08483958315
:100AA000A683B7838AE091E09183808385EC90E010
:100AB0009587848784EC90E09787868780EC90E028
:100AC000918B808B81EC90E0938B828B82EC90E019
:100AD000958B848B86EC90E0978B868B118E128E93
:100AE000138E148E089597FB072E16F4009407D0EA
:100AF00077FD09D00E94A90507FC05D03EF490952A
:100B000081959F4F0895709561957F4F0895A1E25B
:100B10001A2EAA1BBB1BFD010DC0AA1FBB1FEE1F77
:100B2000FF1FA217B307E407F50720F0A21BB30BC2
:100B3000E40BF50B661F771F881F991F1A9469F73E
:100B400060957095809590959B01AC01BD01CF019A
:100B50000895AA1BBB1B51E107C0AA1FBB1FA61704
:100B6000B70710F0A61BB70B881F991F5A95A9F756
:100B700080959095BC01CD010895EE0FFF1F059063
:0A0B8000F491E02D0994F894FFCFE2
:100B8A004A014A01030000000000EB014B01780111
:0C0B9A003802A90187019B010D0A000030
:00000001FF
